{
  "contractName": "ERC20_mtf_allowance",
  "abi": [
    {
      "constant": true,
      "inputs": [],
      "name": "name",
      "outputs": [
        {
          "name": "",
          "type": "string"
        }
      ],
      "payable": false,
      "stateMutability": "view",
      "type": "function"
    },
    {
      "constant": true,
      "inputs": [],
      "name": "totalSupply",
      "outputs": [
        {
          "name": "",
          "type": "uint256"
        }
      ],
      "payable": false,
      "stateMutability": "view",
      "type": "function"
    },
    {
      "constant": true,
      "inputs": [],
      "name": "multiplier",
      "outputs": [
        {
          "name": "",
          "type": "uint256"
        }
      ],
      "payable": false,
      "stateMutability": "view",
      "type": "function"
    },
    {
      "constant": true,
      "inputs": [],
      "name": "decimals",
      "outputs": [
        {
          "name": "",
          "type": "uint8"
        }
      ],
      "payable": false,
      "stateMutability": "view",
      "type": "function"
    },
    {
      "constant": false,
      "inputs": [
        {
          "name": "_value",
          "type": "uint256"
        }
      ],
      "name": "burn",
      "outputs": [],
      "payable": false,
      "stateMutability": "nonpayable",
      "type": "function"
    },
    {
      "constant": true,
      "inputs": [
        {
          "name": "_owner",
          "type": "address"
        }
      ],
      "name": "balanceOf",
      "outputs": [
        {
          "name": "balance",
          "type": "uint256"
        }
      ],
      "payable": false,
      "stateMutability": "view",
      "type": "function"
    },
    {
      "constant": true,
      "inputs": [],
      "name": "symbol",
      "outputs": [
        {
          "name": "",
          "type": "string"
        }
      ],
      "payable": false,
      "stateMutability": "view",
      "type": "function"
    },
    {
      "constant": false,
      "inputs": [
        {
          "name": "_to",
          "type": "address"
        },
        {
          "name": "_value",
          "type": "uint256"
        }
      ],
      "name": "transfer",
      "outputs": [
        {
          "name": "success",
          "type": "bool"
        }
      ],
      "payable": false,
      "stateMutability": "nonpayable",
      "type": "function"
    },
    {
      "inputs": [
        {
          "name": "_initialAmount",
          "type": "uint256"
        },
        {
          "name": "_tokenName",
          "type": "string"
        },
        {
          "name": "_decimalUnits",
          "type": "uint8"
        },
        {
          "name": "_tokenSymbol",
          "type": "string"
        },
        {
          "name": "_owner",
          "type": "address"
        }
      ],
      "payable": false,
      "stateMutability": "nonpayable",
      "type": "constructor"
    },
    {
      "anonymous": false,
      "inputs": [
        {
          "indexed": true,
          "name": "_owner",
          "type": "address"
        },
        {
          "indexed": true,
          "name": "_spender",
          "type": "address"
        },
        {
          "indexed": false,
          "name": "_value",
          "type": "uint256"
        }
      ],
      "name": "Approval",
      "type": "event"
    },
    {
      "anonymous": false,
      "inputs": [
        {
          "indexed": true,
          "name": "_from",
          "type": "address"
        },
        {
          "indexed": true,
          "name": "_to",
          "type": "address"
        },
        {
          "indexed": false,
          "name": "_value",
          "type": "uint256"
        }
      ],
      "name": "Transfer",
      "type": "event"
    },
    {
      "anonymous": false,
      "inputs": [
        {
          "indexed": true,
          "name": "burner",
          "type": "address"
        },
        {
          "indexed": false,
          "name": "value",
          "type": "uint256"
        }
      ],
      "name": "Burn",
      "type": "event"
    },
    {
      "constant": true,
      "inputs": [
        {
          "name": "_owner",
          "type": "address"
        },
        {
          "name": "_spender",
          "type": "address"
        }
      ],
      "name": "allowanceOf",
      "outputs": [
        {
          "name": "remaining",
          "type": "uint256"
        }
      ],
      "payable": false,
      "stateMutability": "view",
      "type": "function"
    },
    {
      "constant": false,
      "inputs": [
        {
          "name": "_from",
          "type": "address"
        },
        {
          "name": "_to",
          "type": "address"
        },
        {
          "name": "_value",
          "type": "uint256"
        }
      ],
      "name": "transferFrom",
      "outputs": [
        {
          "name": "success",
          "type": "bool"
        }
      ],
      "payable": false,
      "stateMutability": "nonpayable",
      "type": "function"
    },
    {
      "constant": false,
      "inputs": [
        {
          "name": "_spender",
          "type": "address"
        },
        {
          "name": "_value",
          "type": "uint256"
        }
      ],
      "name": "approve",
      "outputs": [
        {
          "name": "success",
          "type": "bool"
        }
      ],
      "payable": false,
      "stateMutability": "nonpayable",
      "type": "function"
    },
    {
      "constant": false,
      "inputs": [
        {
          "name": "_spender",
          "type": "address"
        },
        {
          "name": "_value",
          "type": "uint256"
        }
      ],
      "name": "approveAndCall",
      "outputs": [
        {
          "name": "success",
          "type": "bool"
        }
      ],
      "payable": false,
      "stateMutability": "nonpayable",
      "type": "function"
    }
  ],
  "bytecode": "0x6060604052620186a0600455341561001657600080fd5b6040516109b83803806109b8833981016040528080519190602001805182019190602001805191906020018051820191906020018051600160a060020a03811660009081526005602052604081208890556003889055909250869150859085908590859084805161008b9291602001906100be565b506001805460ff191660ff851617905560028280516100ae9291602001906100be565b5050505050505050505050610159565b828054600181600116156101000203166002900490600052602060002090601f016020900481019282601f106100ff57805160ff191683800117855561012c565b8280016001018555821561012c579182015b8281111561012c578251825591602001919060010190610111565b5061013892915061013c565b5090565b61015691905b808211156101385760008155600101610142565b90565b610850806101686000396000f3006060604052600436106100b95763ffffffff7c010000000000000000000000000000000000000000000000000000000060003504166306fdde0381146100be578063095ea7b31461014857806318160ddd1461017e5780631a46ec82146101a35780631b3ed722146101c857806323b872dd146101db578063313ce567146102035780633177029f1461022c57806342966c681461024e57806370a082311461026657806395d89b4114610285578063a9059cbb14610298575b600080fd5b34156100c957600080fd5b6100d16102ba565b60405160208082528190810183818151815260200191508051906020019080838360005b8381101561010d5780820151838201526020016100f5565b50505050905090810190601f16801561013a5780820380516001836020036101000a031916815260200191505b509250505060405180910390f35b341561015357600080fd5b61016a600160a060020a0360043516602435610358565b604051901515815260200160405180910390f35b341561018957600080fd5b6101916103c5565b60405190815260200160405180910390f35b34156101ae57600080fd5b610191600160a060020a03600435811690602435166103cb565b34156101d357600080fd5b6101916103f6565b34156101e657600080fd5b61016a600160a060020a03600435811690602435166044356103fc565b341561020e57600080fd5b6102166104aa565b60405160ff909116815260200160405180910390f35b341561023757600080fd5b61016a600160a060020a03600435166024356104b3565b341561025957600080fd5b61026460043561053b565b005b341561027157600080fd5b610191600160a060020a03600435166105f5565b341561029057600080fd5b6100d1610610565b34156102a357600080fd5b61016a600160a060020a036004351660243561067b565b60008054600181600116156101000203166002900480601f0160208091040260200160405190810160405280929190818152602001828054600181600116156101000203166002900480156103505780601f1061032557610100808354040283529160200191610350565b820191906000526020600020905b81548152906001019060200180831161033357829003601f168201915b505050505081565b600160a060020a03338116600081815260066020908152604080832094871680845294909152808220859055909291907f8c5be1e5ebec7d5bd14f71427d1e84f3dd0314c0f7b2291e5b200ac8c7c3b9259085905190815260200160405180910390a35060015b92915050565b60035481565b600160a060020a03918216600090815260066020908152604080832093909416825291909152205490565b60045481565b60008061040985336103cb565b90508281101561041857600080fd5b600019811061042657600080fd5b600160a060020a038086166000908152600660209081526040808320339094168352929052205461045d908463ffffffff61069d16565b600160a060020a038087166000908152600660209081526040808320339094168352929052205561048f8585856106af565b1561049d57600191506104a2565b600091505b509392505050565b60015460ff1681565b6000826104c08184610358565b156105345780600160a060020a031663176bacb06040518163ffffffff167c0100000000000000000000000000000000000000000000000000000000028152600401600060405180830381600087803b151561051b57600080fd5b6102c65a03f1151561052c57600080fd5b505050600191505b5092915050565b600160a060020a03331660009081526005602052604081205482111561056057600080fd5b5033600160a060020a038116600090815260056020526040902054610585908361069d565b600160a060020a0382166000908152600560205260409020556003546105b1908363ffffffff61069d16565b600355600160a060020a0381167fcc16f5dbb4873280815c1ee09dbd06736cffcc184412cf7a71a0fdb75d397ca58360405190815260200160405180910390a25050565b600160a060020a031660009081526005602052604090205490565b60028054600181600116156101000203166002900480601f0160208091040260200160405190810160405280929190818152602001828054600181600116156101000203166002900480156103505780601f1061032557610100808354040283529160200191610350565b60006106883384846106af565b15610695575060016103bf565b5060006103bf565b6000828211156106a957fe5b50900390565b600080600160a060020a03841615156106c757600080fd5b600160a060020a038516600090815260056020526040902054839010156106ed57600080fd5b600160a060020a0384166000908152600560205260409020548381011161071357600080fd5b50600160a060020a038084166000908152600560205260408082205492871682529020549081019061074b908463ffffffff61069d16565b600160a060020a038087166000908152600560205260408082209390935590861681522054610780908463ffffffff61080e16565b600160a060020a03808616600081815260056020526040908190209390935591908716907fddf252ad1be2c89b69c2b068fc378daa952ba7f163c4a11628f55a4df523b3ef9086905190815260200160405180910390a3600160a060020a0380851660009081526005602052604080822054928816825290205401811461080357fe5b506001949350505050565b60008282018381101561081d57fe5b93925050505600a165627a7a72305820ac3c7d987eab95f0231630efd95f6f73c9829117c4acb5d8a2c862c47f1109310029",
  "source": "// Abstract contract for the full ERC 20 Token standard\n// https://github.com/ethereum/EIPs/issues/20\npragma solidity ^0.4.19;\n\nimport './SafeMath.sol';\nimport './ERC20_mtf.sol';\n\n/*\nThis Token Contract implements the standard token functionality (https://github.com/ethereum/EIPs/issues/20) as well as the following OPTIONAL extras intended for use by humans.\n\nThis contract was then adapted by Iconemy to suit the MetaFusion token \n\n1) Initial Finite Supply (upon creation one specifies how much is minted).\n2) In the absence of a token registry: Optional Decimal, Symbol & Name.\n3) Optional approveAndCall() functionality to notify a contract if an approval() has occurred.\n\n*/\ncontract ERC20_mtf_allowance is ERC20_mtf {\n    using SafeMath for uint256;\n\n    mapping (address => mapping (address => uint256)) allowed;   \n\n    // Constructor function which takes in values from migrations and passes to parent contract\n    function ERC20_mtf_allowance(\n        uint256 _initialAmount,\n        string _tokenName,\n        uint8 _decimalUnits,\n        string _tokenSymbol,\n        address _owner\n    ) public ERC20_mtf( _initialAmount, _tokenName, _decimalUnits, _tokenSymbol, _owner){}\n\n    event Approval(address indexed _owner, address indexed _spender, uint256 _value);\n\n    // Get the allowance of a spender for a certain account\n    function allowanceOf(address _owner, address _spender) public constant returns (uint256 remaining) {\n        return allowed[_owner][_spender];\n    }\n\n    function transferFrom(address _from, address _to, uint256 _value) public returns (bool success) {\n        //Check the allowance of the address spending tokens on behalf of account\n        uint256 allowance = allowanceOf(_from, msg.sender);\n        //Require that they must have more in their allowance than they wish to send\n        require(allowance >= _value);\n\n        //Require that allowance isnt the max integer\n        require(allowance < MAX_UINT256);\n            \n        //If so, take from their allowance and transfer\n        allowed[_from][msg.sender] = allowed[_from][msg.sender].sub(_value);\n\n        if(_transfer(_from, _to, _value)){\n            return true;\n        } else {\n            return false;\n        } \n        \n    }\n\n    // Approve the allowance for a certain spender\n    function approve(address _spender, uint256 _value) public returns (bool success) {\n        allowed[msg.sender][_spender] = _value;\n        Approval(msg.sender, _spender, _value);\n        return true;\n    }\n\n    function approveAndCall(address _spender, uint256 _value) public returns (bool success) {\n        // This function is used by contracts to allowing the token to notify them when an approval has been made. \n        tokenSpender spender = tokenSpender(_spender);\n\n        if(approve(_spender, _value)){\n            spender.receiveApproval();\n            return true;\n        }\n    }\n}\n\n// Interface for Metafusions crowdsale contract\ncontract tokenSpender { \n    function receiveApproval() external; \n}",
  "sourcePath": "/Users/jackpickering/Desktop/Development/metafusion_contracts/contracts/ERC20_mtf_allowance.sol",
  "compiler": {
    "name": "solc",
    "version": "0.4.19+commit.c4cbbb05.Emscripten.clang"
  },
  "schemaVersion": "2.0.0",
  "updatedAt": "2018-10-12T16:04:11.008Z"
}