{
  "contractName": "ERC20_mtf",
  "abi": [
    {
      "constant": true,
      "inputs": [],
      "name": "name",
      "outputs": [
        {
          "name": "",
          "type": "string"
        }
      ],
      "payable": false,
      "stateMutability": "view",
      "type": "function"
    },
    {
      "constant": true,
      "inputs": [],
      "name": "totalSupply",
      "outputs": [
        {
          "name": "",
          "type": "uint256"
        }
      ],
      "payable": false,
      "stateMutability": "view",
      "type": "function"
    },
    {
      "constant": true,
      "inputs": [],
      "name": "multiplier",
      "outputs": [
        {
          "name": "",
          "type": "uint256"
        }
      ],
      "payable": false,
      "stateMutability": "view",
      "type": "function"
    },
    {
      "constant": true,
      "inputs": [],
      "name": "decimals",
      "outputs": [
        {
          "name": "",
          "type": "uint8"
        }
      ],
      "payable": false,
      "stateMutability": "view",
      "type": "function"
    },
    {
      "constant": true,
      "inputs": [],
      "name": "symbol",
      "outputs": [
        {
          "name": "",
          "type": "string"
        }
      ],
      "payable": false,
      "stateMutability": "view",
      "type": "function"
    },
    {
      "inputs": [
        {
          "name": "_initialAmount",
          "type": "uint256"
        },
        {
          "name": "_tokenName",
          "type": "string"
        },
        {
          "name": "_decimalUnits",
          "type": "uint8"
        },
        {
          "name": "_tokenSymbol",
          "type": "string"
        },
        {
          "name": "_owner",
          "type": "address"
        }
      ],
      "payable": false,
      "stateMutability": "nonpayable",
      "type": "constructor"
    },
    {
      "anonymous": false,
      "inputs": [
        {
          "indexed": true,
          "name": "_from",
          "type": "address"
        },
        {
          "indexed": true,
          "name": "_to",
          "type": "address"
        },
        {
          "indexed": false,
          "name": "_value",
          "type": "uint256"
        }
      ],
      "name": "Transfer",
      "type": "event"
    },
    {
      "anonymous": false,
      "inputs": [
        {
          "indexed": true,
          "name": "burner",
          "type": "address"
        },
        {
          "indexed": false,
          "name": "value",
          "type": "uint256"
        }
      ],
      "name": "Burn",
      "type": "event"
    },
    {
      "constant": false,
      "inputs": [
        {
          "name": "_value",
          "type": "uint256"
        }
      ],
      "name": "burn",
      "outputs": [],
      "payable": false,
      "stateMutability": "nonpayable",
      "type": "function"
    },
    {
      "constant": true,
      "inputs": [
        {
          "name": "_owner",
          "type": "address"
        }
      ],
      "name": "balanceOf",
      "outputs": [
        {
          "name": "balance",
          "type": "uint256"
        }
      ],
      "payable": false,
      "stateMutability": "view",
      "type": "function"
    },
    {
      "constant": false,
      "inputs": [
        {
          "name": "_to",
          "type": "address"
        },
        {
          "name": "_value",
          "type": "uint256"
        }
      ],
      "name": "transfer",
      "outputs": [
        {
          "name": "success",
          "type": "bool"
        }
      ],
      "payable": false,
      "stateMutability": "nonpayable",
      "type": "function"
    }
  ],
  "bytecode": "0x6080604052620186a060045534801561001757600080fd5b506040516106fb3803806106fb83398101604090815281516020808401518385015160608601516080870151600160a060020a0381166000908152600586529687208690556003869055928701805195979096929591019361007d9291908701906100ab565b506001805460ff191660ff851617905581516100a09060029060208501906100ab565b505050505050610146565b828054600181600116156101000203166002900490600052602060002090601f016020900481019282601f106100ec57805160ff1916838001178555610119565b82800160010185558215610119579182015b828111156101195782518255916020019190600101906100fe565b50610125929150610129565b5090565b61014391905b80821115610125576000815560010161012f565b90565b6105a6806101556000396000f30060806040526004361061008d5763ffffffff7c010000000000000000000000000000000000000000000000000000000060003504166306fdde03811461009257806318160ddd1461011c5780631b3ed72214610143578063313ce5671461015857806342966c681461018357806370a082311461019d57806395d89b41146101be578063a9059cbb146101d3575b600080fd5b34801561009e57600080fd5b506100a761020b565b6040805160208082528351818301528351919283929083019185019080838360005b838110156100e15781810151838201526020016100c9565b50505050905090810190601f16801561010e5780820380516001836020036101000a031916815260200191505b509250505060405180910390f35b34801561012857600080fd5b50610131610299565b60408051918252519081900360200190f35b34801561014f57600080fd5b5061013161029f565b34801561016457600080fd5b5061016d6102a5565b6040805160ff9092168252519081900360200190f35b34801561018f57600080fd5b5061019b6004356102ae565b005b3480156101a957600080fd5b50610131600160a060020a036004351661035d565b3480156101ca57600080fd5b506100a7610378565b3480156101df57600080fd5b506101f7600160a060020a03600435166024356103d0565b604080519115158252519081900360200190f35b6000805460408051602060026001851615610100026000190190941693909304601f810184900484028201840190925281815292918301828280156102915780601f1061026657610100808354040283529160200191610291565b820191906000526020600020905b81548152906001019060200180831161027457829003601f168201915b505050505081565b60035481565b60045481565b60015460ff1681565b336000908152600560205260408120548211156102ca57600080fd5b50336000818152600560205260409020546102eb908363ffffffff6103f416565b600160a060020a038216600090815260056020526040902055600354610317908363ffffffff6103f416565b600355604080518381529051600160a060020a038316917fcc16f5dbb4873280815c1ee09dbd06736cffcc184412cf7a71a0fdb75d397ca5919081900360200190a25050565b600160a060020a031660009081526005602052604090205490565b6002805460408051602060018416156101000260001901909316849004601f810184900484028201840190925281815292918301828280156102915780601f1061026657610100808354040283529160200191610291565b60006103dd338484610406565b156103ea575060016103ee565b5060005b92915050565b60008282111561040057fe5b50900390565b600080600160a060020a038416151561041e57600080fd5b600160a060020a03851660009081526005602052604090205483111561044357600080fd5b600160a060020a0384166000908152600560205260409020548381011161046957600080fd5b50600160a060020a03808416600090815260056020526040808220549287168252902054908101906104a1908463ffffffff6103f416565b600160a060020a0380871660009081526005602052604080822093909355908616815220546104d6908463ffffffff61056416565b600160a060020a0380861660008181526005602090815260409182902094909455805187815290519193928916927fddf252ad1be2c89b69c2b068fc378daa952ba7f163c4a11628f55a4df523b3ef92918290030190a3600160a060020a0380851660009081526005602052604080822054928816825290205401811461055957fe5b506001949350505050565b60008282018381101561057357fe5b93925050505600a165627a7a7230582034c62bd6572ecd2560fcf2438c0d5ae1501a2642ab048d7e304505bc749739d20029",
  "source": "// Abstract contract for the full ERC 20 Token standard\n// https://github.com/ethereum/EIPs/issues/20\npragma solidity ^0.4.19;\n\nimport './SafeMath.sol';\n\n/*\nThis Token Contract implements the standard token functionality (https://github.com/ethereum/EIPs/issues/20) as well as the following OPTIONAL extras intended for use by humans.\n\nThis contract was then adapted by Iconemy to suit the MetaFusion token \n*/\ncontract ERC20_mtf {\n    using SafeMath for uint256;\n\n    /* Public variables of the token */\n\n    /*\n    NOTE:\n    The following variables are OPTIONAL vanities. One does not have to include them.\n    They allow one to customise the token contract & in no way influences the core functionality.\n    Some wallets/interfaces might not even bother to look at this information.\n    */\n    uint256 constant MAX_UINT256 = 2**256 - 1;\n    string public name;                   //fancy name: eg Simon Bucks\n    uint8 public decimals;                //How many decimals to show. ie. There could 1000 base units with 3 decimals. Meaning 0.980 SBX = 980 base units. It's like comparing 1 wei to 1 ether.\n    string public symbol;                 //An identifier: eg SBX\n    uint256 public totalSupply;  \n    uint256 public multiplier = 100000;\n    mapping (address => uint256) balances;   \n\n    function ERC20_mtf(\n        uint256 _initialAmount,\n        string _tokenName,\n        uint8 _decimalUnits,\n        string _tokenSymbol,\n        address _owner\n        ) public {\n        balances[_owner] = _initialAmount;               // Give the creator all initial tokens\n        totalSupply = _initialAmount;                        // Update total supply\n        name = _tokenName;                                   // Set the name for display purposes\n        decimals = _decimalUnits;                            // Amount of decimals for display purposes\n        symbol = _tokenSymbol;                               // Set the symbol for display purposes\n    }\n\n    event Transfer(address indexed _from, address indexed _to, uint256 _value);\n    event Burn(address indexed burner, uint256 value);\n\n    /**\n     * @dev Burns a specific amount of tokens.\n     * @param _value The amount of token to be burned.\n     */\n    function burn(uint256 _value) public {\n        require(_value <= balances[msg.sender]);\n        // no need to require value <= totalSupply, since that would imply the\n        // sender's balance is greater than the totalSupply, which *should* be an assertion failure\n\n        address burner = msg.sender;\n        balances[burner] = balances[burner].sub(_value);\n        totalSupply = totalSupply.sub(_value);\n        Burn(burner, _value);\n    }\n\n\n    // Get the balance of this caller\n    function balanceOf(address _owner) constant public returns (uint256 balance) {\n        return balances[_owner];\n    }\n\n    function transfer(address _to, uint256 _value) public returns (bool success) {\n        //Call internal transfer method\n        if(_transfer(msg.sender, _to, _value)){\n            return true;\n        } else {\n            return false;\n        }\n    }\n\n    function _transfer(address _from, address _to, uint256 _value) internal returns(bool success){\n        // Prevent transfer to 0x0 address. Use burn() instead\n        require(_to != 0x0);\n        // Check if the sender has enough\n        require(balances[_from] >= _value);\n        // Check for overflows (as max number is 2**256 - 1 - balances will overflow after that)\n        require(balances[_to] + _value > balances[_to]);\n        // Save this for an assertion in the future\n        uint previousBalances = balances[_from] + balances[_to];\n        // Subtract from the sender\n        balances[_from] = balances[_from].sub(_value);\n        // Add the same to the recipient\n        balances[_to] =  balances[_to].add(_value);\n\n        Transfer(_from, _to, _value);\n\n        // Asserts are used to use static analysis to find bugs in your code. They should never fail\n        assert(balances[_from] + balances[_to] == previousBalances);\n\n        return true;\n    }\n}",
  "sourcePath": "/Users/Blueberry/metafusion/contracts/ERC20_mtf.sol",
  "compiler": {
    "name": "solc",
    "version": "0.4.24+commit.e67f0147.Emscripten.clang"
  },
  "schemaVersion": "2.0.1",
  "updatedAt": "2018-10-17T10:07:56.168Z"
}