{
  "contractName": "SALE_mtf",
  "abi": [
    {
      "constant": true,
      "inputs": [],
      "name": "tokensSent",
      "outputs": [
        {
          "name": "",
          "type": "uint256"
        }
      ],
      "payable": false,
      "stateMutability": "view",
      "type": "function"
    },
    {
      "constant": true,
      "inputs": [],
      "name": "rate",
      "outputs": [
        {
          "name": "",
          "type": "uint256"
        }
      ],
      "payable": false,
      "stateMutability": "view",
      "type": "function"
    },
    {
      "constant": true,
      "inputs": [],
      "name": "endTime",
      "outputs": [
        {
          "name": "",
          "type": "uint256"
        }
      ],
      "payable": false,
      "stateMutability": "view",
      "type": "function"
    },
    {
      "constant": true,
      "inputs": [],
      "name": "weiRaised",
      "outputs": [
        {
          "name": "",
          "type": "uint256"
        }
      ],
      "payable": false,
      "stateMutability": "view",
      "type": "function"
    },
    {
      "constant": true,
      "inputs": [],
      "name": "hasHalted",
      "outputs": [
        {
          "name": "isHalted",
          "type": "bool"
        }
      ],
      "payable": false,
      "stateMutability": "view",
      "type": "function"
    },
    {
      "constant": true,
      "inputs": [
        {
          "name": "",
          "type": "address"
        }
      ],
      "name": "balanceOf",
      "outputs": [
        {
          "name": "",
          "type": "uint256"
        }
      ],
      "payable": false,
      "stateMutability": "view",
      "type": "function"
    },
    {
      "constant": true,
      "inputs": [],
      "name": "startTime",
      "outputs": [
        {
          "name": "",
          "type": "uint256"
        }
      ],
      "payable": false,
      "stateMutability": "view",
      "type": "function"
    },
    {
      "constant": true,
      "inputs": [],
      "name": "owner",
      "outputs": [
        {
          "name": "",
          "type": "address"
        }
      ],
      "payable": false,
      "stateMutability": "view",
      "type": "function"
    },
    {
      "constant": true,
      "inputs": [],
      "name": "halted",
      "outputs": [
        {
          "name": "",
          "type": "bool"
        }
      ],
      "payable": false,
      "stateMutability": "view",
      "type": "function"
    },
    {
      "constant": true,
      "inputs": [],
      "name": "iconemy_wallet",
      "outputs": [
        {
          "name": "",
          "type": "address"
        }
      ],
      "payable": false,
      "stateMutability": "view",
      "type": "function"
    },
    {
      "constant": false,
      "inputs": [],
      "name": "stopICO",
      "outputs": [],
      "payable": false,
      "stateMutability": "nonpayable",
      "type": "function"
    },
    {
      "constant": true,
      "inputs": [],
      "name": "commission",
      "outputs": [
        {
          "name": "",
          "type": "uint256"
        }
      ],
      "payable": false,
      "stateMutability": "view",
      "type": "function"
    },
    {
      "constant": true,
      "inputs": [
        {
          "name": "",
          "type": "address"
        }
      ],
      "name": "tokenBalanceOf",
      "outputs": [
        {
          "name": "",
          "type": "uint256"
        }
      ],
      "payable": false,
      "stateMutability": "view",
      "type": "function"
    },
    {
      "constant": false,
      "inputs": [
        {
          "name": "newOwner",
          "type": "address"
        }
      ],
      "name": "transferOwnership",
      "outputs": [],
      "payable": false,
      "stateMutability": "nonpayable",
      "type": "function"
    },
    {
      "inputs": [
        {
          "name": "_token",
          "type": "address"
        },
        {
          "name": "_owner",
          "type": "address"
        },
        {
          "name": "_rate",
          "type": "uint256"
        },
        {
          "name": "_startTime",
          "type": "uint256"
        },
        {
          "name": "_endTime",
          "type": "uint256"
        },
        {
          "name": "_iconemy",
          "type": "address"
        }
      ],
      "payable": false,
      "stateMutability": "nonpayable",
      "type": "constructor"
    },
    {
      "anonymous": false,
      "inputs": [
        {
          "indexed": true,
          "name": "purchaser",
          "type": "address"
        },
        {
          "indexed": false,
          "name": "value",
          "type": "uint256"
        },
        {
          "indexed": false,
          "name": "amount",
          "type": "uint256"
        },
        {
          "indexed": false,
          "name": "datetime",
          "type": "uint256"
        }
      ],
      "name": "TokenPurchase",
      "type": "event"
    },
    {
      "anonymous": false,
      "inputs": [
        {
          "indexed": false,
          "name": "beneficiary",
          "type": "address"
        },
        {
          "indexed": false,
          "name": "amount",
          "type": "uint256"
        },
        {
          "indexed": false,
          "name": "datetime",
          "type": "uint256"
        }
      ],
      "name": "BeneficiaryWithdrawal",
      "type": "event"
    },
    {
      "anonymous": false,
      "inputs": [
        {
          "indexed": false,
          "name": "beneficiary",
          "type": "address"
        },
        {
          "indexed": false,
          "name": "amount",
          "type": "uint256"
        },
        {
          "indexed": false,
          "name": "datetime",
          "type": "uint256"
        }
      ],
      "name": "CommissionCollected",
      "type": "event"
    },
    {
      "anonymous": false,
      "inputs": [
        {
          "indexed": false,
          "name": "owner",
          "type": "address"
        },
        {
          "indexed": false,
          "name": "datetime",
          "type": "uint256"
        }
      ],
      "name": "SaleStopped",
      "type": "event"
    },
    {
      "anonymous": false,
      "inputs": [
        {
          "indexed": true,
          "name": "previousOwner",
          "type": "address"
        },
        {
          "indexed": true,
          "name": "newOwner",
          "type": "address"
        }
      ],
      "name": "OwnershipTransferred",
      "type": "event"
    },
    {
      "constant": false,
      "inputs": [],
      "name": "receiveApproval",
      "outputs": [],
      "payable": false,
      "stateMutability": "nonpayable",
      "type": "function"
    },
    {
      "constant": true,
      "inputs": [],
      "name": "allowanceOf",
      "outputs": [
        {
          "name": "",
          "type": "uint256"
        }
      ],
      "payable": false,
      "stateMutability": "view",
      "type": "function"
    },
    {
      "constant": true,
      "inputs": [],
      "name": "hasApproval",
      "outputs": [
        {
          "name": "",
          "type": "bool"
        }
      ],
      "payable": false,
      "stateMutability": "view",
      "type": "function"
    },
    {
      "constant": true,
      "inputs": [],
      "name": "getPrice",
      "outputs": [
        {
          "name": "",
          "type": "uint256"
        }
      ],
      "payable": false,
      "stateMutability": "view",
      "type": "function"
    },
    {
      "constant": false,
      "inputs": [],
      "name": "buyTokens",
      "outputs": [],
      "payable": true,
      "stateMutability": "payable",
      "type": "function"
    },
    {
      "constant": true,
      "inputs": [
        {
          "name": "_tokens",
          "type": "uint256"
        }
      ],
      "name": "checkAllowance",
      "outputs": [],
      "payable": false,
      "stateMutability": "view",
      "type": "function"
    },
    {
      "constant": true,
      "inputs": [],
      "name": "hasEnded",
      "outputs": [
        {
          "name": "",
          "type": "bool"
        }
      ],
      "payable": false,
      "stateMutability": "view",
      "type": "function"
    },
    {
      "constant": true,
      "inputs": [],
      "name": "refundAvailable",
      "outputs": [
        {
          "name": "",
          "type": "bool"
        }
      ],
      "payable": false,
      "stateMutability": "view",
      "type": "function"
    },
    {
      "constant": false,
      "inputs": [],
      "name": "collectRefund",
      "outputs": [],
      "payable": false,
      "stateMutability": "nonpayable",
      "type": "function"
    },
    {
      "constant": false,
      "inputs": [],
      "name": "collectInvestment",
      "outputs": [
        {
          "name": "",
          "type": "bool"
        }
      ],
      "payable": false,
      "stateMutability": "nonpayable",
      "type": "function"
    },
    {
      "constant": false,
      "inputs": [],
      "name": "collectCommission",
      "outputs": [
        {
          "name": "",
          "type": "bool"
        }
      ],
      "payable": false,
      "stateMutability": "nonpayable",
      "type": "function"
    }
  ],
  "bytecode": "0x60806040526000805460a860020a60ff021916905534801561002057600080fd5b5060405160c080610c4e83398101604090815281516020830151918301516060840151608085015160a09095015160008054600160a060020a031916600160a060020a0387161790559294919290919042831161007c57600080fd5b81831061008857600080fd5b60018054600160a060020a03978816600160a060020a031991821617909155600294909455600392909255600455600980549190941691161790915550610b7a806100d46000396000f3006080604052600436106101485763ffffffff7c0100000000000000000000000000000000000000000000000000000000600035041663176bacb0811461014d5780631f1307611461016457806326ce3da01461018b5780632c4e722e146101a05780633197cbb6146101b55780634042b66f146101ca57806346d73def146101df578063537f80c81461020857806370a082311461021d57806378e979251461023e578063895aaebf146102535780638da5cb5b1461026857806398d5fdca14610299578063a86de694146102ae578063b9b8af0b146102c6578063bb8da11d146102db578063bd62ab5f146102f0578063c8e569a814610305578063cb3f52901461031a578063d0febe4c1461032f578063d3b864ec14610337578063e14891911461034c578063e42c08f214610361578063ecb70fb714610382578063f2fde38b14610397575b600080fd5b34801561015957600080fd5b506101626103b8565b005b34801561017057600080fd5b50610179610419565b60408051918252519081900360200190f35b34801561019757600080fd5b5061016261041f565b3480156101ac57600080fd5b50610179610494565b3480156101c157600080fd5b5061017961049a565b3480156101d657600080fd5b506101796104a0565b3480156101eb57600080fd5b506101f46104a6565b604080519115158252519081900360200190f35b34801561021457600080fd5b506101f46104b6565b34801561022957600080fd5b50610179600160a060020a0360043516610586565b34801561024a57600080fd5b50610179610598565b34801561025f57600080fd5b506101f461059e565b34801561027457600080fd5b5061027d6105c0565b60408051600160a060020a039092168252519081900360200190f35b3480156102a557600080fd5b506101796105cf565b3480156102ba57600080fd5b506101626004356105d5565b3480156102d257600080fd5b506101f46105f3565b3480156102e757600080fd5b5061027d610603565b3480156102fc57600080fd5b506101f4610612565b34801561031157600080fd5b50610162610638565b34801561032657600080fd5b506101f46106af565b610162610764565b34801561034357600080fd5b506101796107e7565b34801561035857600080fd5b5061017961088c565b34801561036d57600080fd5b50610179600160a060020a0360043516610892565b34801561038e57600080fd5b506101f46108a4565b3480156103a357600080fd5b50610162600160a060020a03600435166108c2565b60008054600160a060020a031632146103d057600080fd5b6000805475ff0000000000000000000000000000000000000000001916750100000000000000000000000000000000000000000017905561040f6107e7565b60649004600a5550565b60065481565b6000805460a060020a900460ff16151561043857600080fd5b503360009081526007602052604081205490811161045557600080fd5b336000818152600760205260408082208290555183156108fc0291849190818181858888f19350505050158015610490573d6000803e3d6000fd5b5050565b60025481565b60045481565b60055481565b60005460a060020a900460ff1690565b60008054600160a060020a031632146104ce57600080fd5b60005460a060020a900460ff16156104e557600080fd5b6104ed6108a4565b15156104f857600080fd5b60008054600554604051600160a060020a039092169281156108fc029290818181858888f19350505050158015610533573d6000803e3d6000fd5b5060005460055460408051600160a060020a03909316835260208301919091524282820152517f9f7cbddba892cf26a7cd63d61d3c8d085df04bbbe7601e53311038ca6dab196b9181900360600190a190565b60076020526000908152604090205481565b60035481565b6000547501000000000000000000000000000000000000000000900460ff1690565b600054600160a060020a031681565b60025490565b60006105df6107e7565b600a54900390508181101561049057600080fd5b60005460a060020a900460ff1681565b600954600160a060020a031681565b336000908152600760205260408120548110801561063357506106336104a6565b905090565b600054600160a060020a0316321461064f57600080fd5b6000805474ff0000000000000000000000000000000000000000191660a060020a1790556040805133815242602082015281517f4898556e3bd8b06263e50e938f30f736c1fd2030390474dd6bc0b28d8c545037929181900390910190a1565b60008054819060a060020a900460ff16156106c957600080fd5b600954600160a060020a031633146106e057600080fd5b6106e86108a4565b15156106f357600080fd5b5060065460095460649091049061071590600160a060020a0316600083610956565b60095460408051600160a060020a039092168252602082018390524282820152517fda1076db6e2684b55829b6d65dffd46ac6ada1e99b2bcb5daeee13c5a5575c709181900360600190a15090565b60008054819060a060020a900460ff161561077e57600080fd5b34915061078a82610aae565b905061079581610acb565b506107a1338383610956565b60408051348152602081018390524281830152905133917f347f5f0051b895093800553e6e78ef332849e2552639a4f5ffe66535788ae078919081900360600190a25050565b60015460008054604080517f1a46ec82000000000000000000000000000000000000000000000000000000008152600160a060020a039283166004820152306024820152905192939190911691631a46ec829160448082019260209290919082900301818787803b15801561085b57600080fd5b505af115801561086f573d6000803e3d6000fd5b505050506040513d602081101561088557600080fd5b5051905090565b600a5481565b60086020526000908152604090205481565b600060045442118061063357505060005460a060020a900460ff1690565b600054600160a060020a031632146108d957600080fd5b600160a060020a03811615156108ee57600080fd5b60008054604051600160a060020a03808516939216917f8be0079c531659141344cd1fd0a4f28419497f9722a3daafe3b4186f6b6457e091a36000805473ffffffffffffffffffffffffffffffffffffffff1916600160a060020a0392909216919091179055565b60015460008054604080517f23b872dd000000000000000000000000000000000000000000000000000000008152600160a060020a039283166004820152878316602482015260448101869052905191909316926323b872dd9260648083019360209390929083900390910190829087803b1580156109d457600080fd5b505af11580156109e8573d6000803e3d6000fd5b505050506040513d60208110156109fe57600080fd5b505115610aa957600160a060020a038316600090815260076020526040902054610a2e908363ffffffff610b2116565b600160a060020a038416600090815260076020908152604080832093909355600890522054610a63908263ffffffff610b2116565b600160a060020a038416600090815260086020526040902055600554610a8f908363ffffffff610b2116565b600555600654610aa5908263ffffffff610b2116565b6006555b505050565b6000610ac560025483610b3790919063ffffffff16565b92915050565b6000806000610ad86108a4565b15610ae257600080fd5b610aeb846105d5565b6003544210158015610aff57506004544211155b915050341515818015610b0f5750805b1515610b1a57600080fd5b5050919050565b600082820183811015610b3057fe5b9392505050565b6000808284811515610b4557fe5b049493505050505600a165627a7a723058208330032a40d3e6f8935593fbbee0fee00e5722c479ff932dec8a0f9e522a21150029",
  "source": "pragma solidity ^0.4.19;\n\nimport './SafeMath.sol';\nimport './Stoppable.sol';\n\n/* SALE_mtf is the smart contract facilitating MetaFusions first public crowdsale. Created by Iconemy on 11/10/18\n * SALE_mtf allows the owner of the MetaFusion tokens to 'allow' the sale to sell a portion of tokens on his/her behalf, \n * this will then allow the owner to run further sales in the future by allowing to spend a further portion of tokens. \n * The sale is stoppable therefore, the owner can stop the sale in an emergency and allow the investors to withdraw their \n * investments. \n */\ncontract SALE_mtf is Stoppable {\n  using SafeMath for uint256;\n\n  bool private approval = false;\n\n  mtfToken token;\n  uint256 public rate;\n\n  uint256 public startTime;\n  uint256 public endTime;\n\n  uint256 public weiRaised;\n  uint256 public tokensSent;\n\n  mapping(address => uint256) public balanceOf;\n  mapping(address => uint256) public tokenBalanceOf;\n\n  address public iconemy_wallet;\n  uint256 public commission; \n\n  event TokenPurchase(address indexed purchaser, uint256 value, uint256 amount, uint256 datetime);\n  event BeneficiaryWithdrawal(address beneficiary, uint256 amount, uint256 datetime);\n  event CommissionCollected(address beneficiary, uint256 amount, uint256 datetime);\n\n  // CONSTRUCTOR\n  function SALE_mtf(address _token, address _owner, uint256 _rate, uint256 _startTime, uint256 _endTime, address _iconemy) public Stoppable(_owner) {\n    require(_startTime > now);\n    require(_startTime < _endTime);\n\n    token = mtfToken(_token);\n    rate = _rate;\n    startTime = _startTime;\n    endTime = _endTime;\n    iconemy_wallet = _iconemy;\n  }\n\n  // Recieve approval is used in the sales interface on the MetaFusion ERC-20 token, allowing the owner to use approveAndCall\n  // When this function is called, we check the allowance of the sale the tokens interface and store 1% of that as a maximum commission\n  // We do this to reserve 1% of tokens in the case that the sale sells out, Iconemy will collect the full 1%. \n  function receiveApproval() onlyOwner external {\n    approval = true;\n    uint256 allowance = allowanceOf();\n\n    // Reserved for Iconemy commission\n    commission = allowance / 100;\n  }\n\n  // Uses the token interface to check how many tokens the sale is allowed to sell\n  function allowanceOf() public view returns(uint256) {\n    return token.allowanceOf(owner, this);\n  }\n\n  // Shows that the sale has been given approval to sell tokens by the token owner\n  function hasApproval() public view returns(bool) {\n    return approval;\n  }\n\n  function getPrice() public view returns(uint256) {\n    return rate;\n  }\n\n  /*\n   * This method has taken from Pickeringware ltd\n   * We have split this method down into overidable functions which may affect how users purchase tokens\n  */ \n  function buyTokens() public stopInEmergency payable {\n    uint256 weiAmount = msg.value;\n\n    // calculate token amount to be created\n    uint256 tokens = tokensToRecieve(weiAmount);\n\n    validPurchase(tokens);\n\n    finalizeSale(msg.sender, weiAmount, tokens);\n\n    TokenPurchase(msg.sender, msg.value, tokens, now);\n  }\n\n  //Check that the amount of tokens requested is less than or equal to the ammount of tokens allowed to send\n  function checkAllowance(uint256 _tokens) public view {\n    uint256 allowance = allowanceOf();\n\n    allowance = allowance - commission;\n\n    require(allowance >= _tokens);\n  }\n\n  // If the transfer function works using the token interface, mark the balances of the buyer\n  function finalizeSale(address from, uint256 _weiAmount, uint256 _tokens) internal {\n    if(token.transferFrom(owner, from, _tokens)){\n      balanceOf[from] = balanceOf[from].add(_weiAmount);\n      tokenBalanceOf[from] = tokenBalanceOf[from].add(_tokens);\n\n      weiRaised = weiRaised.add(_weiAmount);\n      tokensSent = tokensSent.add(_tokens);\n    }\n  }\n\n  // Calculate amount of tokens due for the amount of ETH sent\n  function tokensToRecieve(uint256 _wei) internal view returns (uint256 tokens) {\n    return _wei.div(rate);\n  }\n\n  // @return true if crowdsale event has ended\n  function hasEnded() public view returns (bool) {\n    return now > endTime || halted;\n  }\n\n  // Checks if the purchase is valid\n  function validPurchase(uint256 _tokens) internal view returns (bool) {\n    require(!hasEnded());\n\n    checkAllowance(_tokens);\n\n    bool withinPeriod = now >= startTime && now <= endTime;\n\n    bool nonZeroPurchase = msg.value != 0;\n\n    require(withinPeriod && nonZeroPurchase);\n  }\n\n  // Allows someone to check if they are valid for a refund\n  // This can be used front-end to show/hide the collect refund function \n  function refundAvailable() public view returns(bool) {\n    return balanceOf[msg.sender] > 0 && hasHalted();\n  }\n\n  // Allows an investor to collect their investment if the sale was stopped prematurely\n  function collectRefund() public onlyInEmergency {\n    uint256 balance = balanceOf[msg.sender];\n\n    require(balance > 0);\n\n    balanceOf[msg.sender] = 0;\n\n    msg.sender.transfer(balance);\n  }\n\n  // Allows the owner to collect the eth raised in the sale\n  function collectInvestment() public onlyOwner stopInEmergency returns(bool) {\n    require(hasEnded());\n\n    owner.transfer(weiRaised);\n    BeneficiaryWithdrawal(owner, weiRaised, now);\n  }\n\n  // Allows Iconemy to collect 1% of the tokens sold in the crowdsale\n  function collectCommission() public stopInEmergency returns(bool) {\n    require(msg.sender == iconemy_wallet);\n    require(hasEnded());\n\n    uint256 one_percent = tokensSent / 100;\n\n    finalizeSale(iconemy_wallet, 0, one_percent);\n\n    CommissionCollected(iconemy_wallet, one_percent, now);\n  }\n}  \n\n// Token interface used for interacting with the MetaFusion ERC-20 contract\ncontract mtfToken { \n  function transferFrom(address _from, address _to, uint256 _value) public returns (bool success); \n  function allowanceOf(address _owner, address _spender) public constant returns (uint256 remaining);\n}",
  "sourcePath": "/Users/Blueberry/metafusion/contracts/SALE_mtf.sol",
  "compiler": {
    "name": "solc",
    "version": "0.4.24+commit.e67f0147.Emscripten.clang"
  },
  "schemaVersion": "2.0.1",
  "updatedAt": "2018-10-16T13:37:18.384Z"
}