{
  "contractName": "Stoppable",
  "abi": [
    {
      "constant": true,
      "inputs": [],
      "name": "owner",
      "outputs": [
        {
          "name": "",
          "type": "address"
        }
      ],
      "payable": false,
      "stateMutability": "view",
      "type": "function"
    },
    {
      "constant": true,
      "inputs": [],
      "name": "halted",
      "outputs": [
        {
          "name": "",
          "type": "bool"
        }
      ],
      "payable": false,
      "stateMutability": "view",
      "type": "function"
    },
    {
      "constant": false,
      "inputs": [
        {
          "name": "newOwner",
          "type": "address"
        }
      ],
      "name": "transferOwnership",
      "outputs": [],
      "payable": false,
      "stateMutability": "nonpayable",
      "type": "function"
    },
    {
      "inputs": [
        {
          "name": "owner",
          "type": "address"
        }
      ],
      "payable": false,
      "stateMutability": "nonpayable",
      "type": "constructor"
    },
    {
      "anonymous": false,
      "inputs": [
        {
          "indexed": false,
          "name": "owner",
          "type": "address"
        },
        {
          "indexed": false,
          "name": "datetime",
          "type": "uint256"
        }
      ],
      "name": "SaleStopped",
      "type": "event"
    },
    {
      "anonymous": false,
      "inputs": [
        {
          "indexed": true,
          "name": "previousOwner",
          "type": "address"
        },
        {
          "indexed": true,
          "name": "newOwner",
          "type": "address"
        }
      ],
      "name": "OwnershipTransferred",
      "type": "event"
    },
    {
      "constant": true,
      "inputs": [],
      "name": "hasHalted",
      "outputs": [
        {
          "name": "isHalted",
          "type": "bool"
        }
      ],
      "payable": false,
      "stateMutability": "view",
      "type": "function"
    },
    {
      "constant": false,
      "inputs": [],
      "name": "stopICO",
      "outputs": [],
      "payable": false,
      "stateMutability": "nonpayable",
      "type": "function"
    }
  ],
  "bytecode": "0x608060405234801561001057600080fd5b50604051602080610303833981016040525160008054600160a060020a03909216600160a060020a03199092169190911790556102b1806100526000396000f30060806040526004361061006c5763ffffffff7c010000000000000000000000000000000000000000000000000000000060003504166346d73def81146100715780638da5cb5b1461009a578063b9b8af0b146100cb578063c8e569a8146100e0578063f2fde38b146100f7575b600080fd5b34801561007d57600080fd5b50610086610118565b604080519115158252519081900360200190f35b3480156100a657600080fd5b506100af610139565b60408051600160a060020a039092168252519081900360200190f35b3480156100d757600080fd5b50610086610148565b3480156100ec57600080fd5b506100f5610169565b005b34801561010357600080fd5b506100f5600160a060020a03600435166101f1565b60005474010000000000000000000000000000000000000000900460ff1690565b600054600160a060020a031681565b60005474010000000000000000000000000000000000000000900460ff1681565b600054600160a060020a0316321461018057600080fd5b6000805474ff00000000000000000000000000000000000000001916740100000000000000000000000000000000000000001790556040805133815242602082015281517f4898556e3bd8b06263e50e938f30f736c1fd2030390474dd6bc0b28d8c545037929181900390910190a1565b600054600160a060020a0316321461020857600080fd5b600160a060020a038116151561021d57600080fd5b60008054604051600160a060020a03808516939216917f8be0079c531659141344cd1fd0a4f28419497f9722a3daafe3b4186f6b6457e091a36000805473ffffffffffffffffffffffffffffffffffffffff1916600160a060020a03929092169190911790555600a165627a7a72305820a73e2fdfd845f0811a134e06ece5bcec8677f3088c225e2ccbbeff18dc52ed160029",
  "source": "pragma solidity ^0.4.19;\n\nimport './Ownable.sol';\n\ncontract Stoppable is Ownable {\n  bool public halted;\n\n  event SaleStopped(address owner, uint256 datetime);\n\n  function Stoppable(address owner) public Ownable(owner) {}\n\n  modifier stopInEmergency {\n    require(!halted);\n    _;\n  }\n\n  modifier onlyInEmergency {\n    require(halted);\n    _;\n  }\n\n  function hasHalted() public view returns (bool isHalted) {\n  \treturn halted;\n  }\n\n   // called by the owner on emergency, triggers stopped state\n  function stopICO() external onlyOwner {\n    halted = true;\n    SaleStopped(msg.sender, now);\n  }\n}",
  "sourcePath": "/Users/Blueberry/metafusion/contracts/Stoppable.sol",
  "compiler": {
    "name": "solc",
    "version": "0.4.24+commit.e67f0147.Emscripten.clang"
  },
  "schemaVersion": "2.0.1",
  "updatedAt": "2018-10-16T13:37:03.280Z"
}