{
  "contractName": "Stoppable",
  "abi": [
    {
      "constant": true,
      "inputs": [],
      "name": "owner",
      "outputs": [
        {
          "name": "",
          "type": "address"
        }
      ],
      "payable": false,
      "stateMutability": "view",
      "type": "function"
    },
    {
      "constant": true,
      "inputs": [],
      "name": "halted",
      "outputs": [
        {
          "name": "",
          "type": "bool"
        }
      ],
      "payable": false,
      "stateMutability": "view",
      "type": "function"
    },
    {
      "constant": false,
      "inputs": [
        {
          "name": "newOwner",
          "type": "address"
        }
      ],
      "name": "transferOwnership",
      "outputs": [],
      "payable": false,
      "stateMutability": "nonpayable",
      "type": "function"
    },
    {
      "inputs": [
        {
          "name": "owner",
          "type": "address"
        }
      ],
      "payable": false,
      "stateMutability": "nonpayable",
      "type": "constructor"
    },
    {
      "anonymous": false,
      "inputs": [
        {
          "indexed": false,
          "name": "owner",
          "type": "address"
        },
        {
          "indexed": false,
          "name": "datetime",
          "type": "uint256"
        }
      ],
      "name": "SaleStopped",
      "type": "event"
    },
    {
      "anonymous": false,
      "inputs": [
        {
          "indexed": true,
          "name": "previousOwner",
          "type": "address"
        },
        {
          "indexed": true,
          "name": "newOwner",
          "type": "address"
        }
      ],
      "name": "OwnershipTransferred",
      "type": "event"
    },
    {
      "constant": true,
      "inputs": [],
      "name": "hasHalted",
      "outputs": [
        {
          "name": "isHalted",
          "type": "bool"
        }
      ],
      "payable": false,
      "stateMutability": "view",
      "type": "function"
    },
    {
      "constant": false,
      "inputs": [],
      "name": "stopICO",
      "outputs": [],
      "payable": false,
      "stateMutability": "nonpayable",
      "type": "function"
    }
  ],
  "bytecode": "0x6060604052341561000f57600080fd5b6040516020806103108339810160405280805160008054600160a060020a03909216600160a060020a031990921691909117905550506102bc806100546000396000f30060606040526004361061006c5763ffffffff7c010000000000000000000000000000000000000000000000000000000060003504166346d73def81146100715780638da5cb5b14610098578063b9b8af0b146100c7578063c8e569a8146100da578063f2fde38b146100ef575b600080fd5b341561007c57600080fd5b61008461010e565b604051901515815260200160405180910390f35b34156100a357600080fd5b6100ab61012f565b604051600160a060020a03909116815260200160405180910390f35b34156100d257600080fd5b61008461013e565b34156100e557600080fd5b6100ed61015f565b005b34156100fa57600080fd5b6100ed600160a060020a03600435166101f5565b60005474010000000000000000000000000000000000000000900460ff1690565b600054600160a060020a031681565b60005474010000000000000000000000000000000000000000900460ff1681565b60005432600160a060020a0390811691161461017a57600080fd5b6000805474ff00000000000000000000000000000000000000001916740100000000000000000000000000000000000000001790557f4898556e3bd8b06263e50e938f30f736c1fd2030390474dd6bc0b28d8c5450373342604051600160a060020a03909216825260208201526040908101905180910390a1565b60005432600160a060020a0390811691161461021057600080fd5b600160a060020a038116151561022557600080fd5b600054600160a060020a0380831691167f8be0079c531659141344cd1fd0a4f28419497f9722a3daafe3b4186f6b6457e060405160405180910390a36000805473ffffffffffffffffffffffffffffffffffffffff1916600160a060020a03929092169190911790555600a165627a7a7230582076a36803242eb1c74ed0303a412ebe85df54428d9dba5292d95771ce340889030029",
  "source": "pragma solidity ^0.4.19;\n\nimport './Ownable.sol';\n\ncontract Stoppable is Ownable {\n  bool public halted;\n\n  event SaleStopped(address owner, uint256 datetime);\n\n  function Stoppable(address owner) public Ownable(owner) {}\n\n  modifier stopInEmergency {\n    require(!halted);\n    _;\n  }\n\n  modifier onlyInEmergency {\n    require(halted);\n    _;\n  }\n\n  function hasHalted() public view returns (bool isHalted) {\n  \treturn halted;\n  }\n\n   // called by the owner on emergency, triggers stopped state\n  function stopICO() external onlyOwner {\n    halted = true;\n    SaleStopped(msg.sender, now);\n  }\n}",
  "sourcePath": "/Users/jackpickering/Desktop/Development/metafusion_contracts/contracts/Stoppable.sol",
  "compiler": {
    "name": "solc",
    "version": "0.4.19+commit.c4cbbb05.Emscripten.clang"
  },
  "schemaVersion": "2.0.0",
  "updatedAt": "2018-10-12T16:04:11.022Z"
}